:020000040000FA
:0400000074EF08F0A1
:10080000003738392F3435362A3132332D0D303D0B
:100810002B00434C41564520494E434F52524543CD
:100820005441002020202020202020202020202093
:10083000202000434C41564520434F5252454354DB
:1008400041005041524B494E4720504C55530000F7
:10085000B0EC06F02A6EC9EF05F02A50D8B433EF99
:1008600004F035EF04F0EAEF05F0D00E176EFF0E3E
:10087000186E2A50196E1A6A1750192618501A2223
:100880001A500AE10A0E195CD8A049EF04F04CEFA7
:1008900004F0010E4DEF04F0000E1B6E1C6A1B509D
:1008A0001C10D8B456EF04F058EF04F0EAEF05F04E
:1008B0002AC02BF0010E296E010E046E020E43ECCD
:1008C00007F0230E056E080E066EA4EC07F0080E66
:1008D000046E020E43EC07F02A5058EC08F0050EA7
:1008E000186E0F0E176EF10EE82EFED7172EFCD7DE
:1008F000182EFAD700F0EAEF05F02A50D8B483EFAB
:1009000004F085EF04F0EAEF05F0D00E176EFF0E4D
:10091000186E2A50196E1A6A1750192618501A2282
:100920001A500AE10A0E195CD8A099EF04F09CEF66
:1009300004F0010E9DEF04F0000E1D6E1E6A1D50A6
:100940001E10D8B4A6EF04F0A8EF04F0EAEF05F00B
:100950002AC02CF0020E296E090E046E020E43EC22
:1009600007F02A5058EC08F06FEF04F02A50D8B482
:10097000BCEF04F0BEEF04F0EAEF05F0D00E176E06
:10098000FF0E186E2A50196E1A6A17501926185041
:100990001A221A500AE10A0E195CD8A0D2EF04F00C
:1009A000D5EF04F0010ED6EF04F0000E1F6E206AA2
:1009B0001F502010D8B4DFEF04F0E1EF04F0EAEFAD
:1009C00005F02AC02DF0030E296E0A0E046E020EE9
:1009D00043EC07F02A5058EC08F06FEF04F02A506F
:1009E000D8B4F5EF04F0F7EF04F0EAEF05F0D00E1D
:1009F000176EFF0E186E2A50196E1A6A17501926B4
:100A000018501A221A500AE10A0E195CD8A00BEFEE
:100A100005F00EEF05F0010E0FEF05F0000E216E50
:100A2000226A21502210D8B418EF05F01AEF05F011
:100A3000EAEF05F02AC02EF0040E296E0B0E046EAC
:100A4000020E43EC07F02A5058EC08F06FEF04F068
:100A50002A50D8B42EEF05F030EF05F054EF05F032
:100A60003D0E2A18D8B437EF05F039EF05F054EFF2
:100A700005F0000E296E090E046E020E43EC07F01D
:100A8000230E056E080E066EA4EC07F0070E186E16
:100A9000170E176E6A0EE82EFED7172EFCD7182EEB
:100AA000FAD700D0EAEF05F02A50D8B45AEF05F093
:100AB0005CEF05F0EAEF05F03D0E2A18D8A463EFCD
:100AC00005F065EF05F0EAEF05F0000E246E000E6C
:100AD000236E2B0E2324D96E000E2420DA6E300EE6
:100AE0002324E16E000E2420E26EDE50E618D8A426
:100AF0007CEF05F07EEF05F080EF05F0274A282A0D
:100B0000234A242A24BE8EEF05F0245009E1050E65
:100B1000235CD8A08EEF05F090EF05F069EF05F0AB
:100B2000040E27182810D8A498EF05F09AEF05F0C6
:100B3000AEEF05F0000E936E0F0EC16E010E046E47
:100B4000020E43EC07F0330E056E080E066EA4ECA1
:100B500007F08180F8EC07F046EF05F0000E2F6EED
:100B60002B0E086E000E096EEBEC05F008C036F097
:100B700009C037F0000E296E010E046E020E43EC20
:100B800007F0120E056E080E066EA4EC07F046EF95
:100B900005F02950176E186A1850000AD8B4D3EF20
:100BA00005F0EAEF05F01750000AD8B42DEF04F075
:100BB000010AD8B47DEF04F0030AD8B4B6EF04F00C
:100BC000010AD8B4EFEF04F0070AD8B428EF05F013
:100BD000EAEF05F01200000E166E000E156E000E04
:100BE0000F6E000E0E6EF7EF05F0084A092A010E8F
:100BF000146E08C0D9FF09C0DAFF200EDE18D8B481
:100C000004EF06F006EF06F022EF06F0F70E0A6E8C
:100C1000FF0E0B6E08C0D9FF09C0DAFFDF500C6E63
:100C20000D6A0A500C260B500D220D5009E1050EDD
:100C30000C5CD8A01EEF06F020EF06F022EF06F0C5
:100C4000000E146E14C010F0116A10501110D8A4C8
:100C50002CEF06F02EEF06F0F5EF05F038EF06F07A
:100C6000000E0F6E010E0E6E084A092A6DEF06F097
:100C700008C0D9FF09C0DAFFDF500A6E0B6A0B50BB
:100C8000000AD8B446EF06F06DEF06F00A502B0AC2
:100C9000D8B434EF06F0060AD8B430EF06F06DEFA2
:100CA00006F015C001F016C002F0000E046E0A0E28
:100CB000036EA9EC08F008C0D9FF09C0DAFFDF50C5
:100CC0000A6E0A50015E000E025A300E0124156EA3
:100CD000000E0220166E34EF06F0D00E0A6EFF0EE4
:100CE0000B6E08C0D9FF09C0DAFFDF500C6E0D6A29
:100CF0000A500C260B500D220D500AE10A0E0C5C16
:100D0000D8A085EF06F088EF06F0010E89EF06F017
:100D1000000E126E136A12501310D8A492EF06F050
:100D200094EF06F051EF06F00E500F10D8A49BEF91
:100D300006F09DEF06F0ABEF06F015C00AF016C006
:100D40000BF00A1E0B1E0A4A0B2A0AC008F00BC041
:100D500009F0AFEF06F015C008F016C009F0120058
:100D6000010EF66E080EF76E20EE01F0100E09006F
:100D7000F5CFDEFFE806FBE2000E136E000E126EEA
:100D8000000E156E010E146E1438F00B8C6E83A0DD
:100D9000CCEF06F0CEEF06F0D0EF06F001EF07F053
:100DA000124A132A83A2D7EF06F0D9EF06F0DBEF41
:100DB00006F001EF07F0124A132A83A4E2EF06F0CF
:100DC000E4EF06F0E6EF06F001EF07F0124A132A0F
:100DD00083A6EDEF06F0EFEF06F0F1EF06F001EF7E
:100DE00007F0124A132AD89014361536155009E127
:100DF000100E145CD8A0FFEF06F001EF07F0C4EF6F
:100E000006F0000E836E010E1224D96E000E132020
:100E1000DA6EDF501200000E76EC07F0340E046E2E
:100E2000F20EE82EFED7042EFCD7030EBCEC08F021
:100E30000D0E046EFC0EE82EFED7042EFCD7030E1A
:100E4000BCEC08F01D0E046E910EE82EFED7042EA9
:100E5000FCD700F0030EBCEC08F0020EBCEC08F06E
:100E6000020EBCEC08F0080EBCEC08F0000EBCEC66
:100E700008F00C0EBCEC08F0000EBCEC08F0060EFE
:100E8000BCEC08F01200056E0504D8A44AEF07F088
:100E90004CEF07F05DEF07F004507F0F086E083845
:100EA0000F0B066E08500F0B076E0650BCEC08F0D7
:100EB0000750BCEC08F075EF07F0020E0518D8A437
:100EC00064EF07F066EF07F075EF07F00450BF0F0F
:100ED000086E08380F0B066E08500F0B076E065091
:100EE000BCEC08F00750BCEC08F01200016E01A049
:100EF0007CEF07F07EEF07F081EF07F0818A82EF49
:100F000007F0819A01A287EF07F089EF07F08CEFD5
:100F100007F081888DEF07F0819801A492EF07F028
:100F200094EF07F097EF07F0818698EF07F081962E
:100F300001A69DEF07F09FEF07F0A2EF07F0818475
:100F4000A3EF07F081941200000E0A6E000E096EE6
:100F5000BAEF07F009500524076E0A500620086E04
:100F600007C0F6FF08C0F7FF0800F55058EC08F07E
:100F7000094A0A2A09500524076E0A500620086EFD
:100F800007C0F6FF08C0F7FF0800F5500009D8A415
:100F9000CCEF07F0CEEF07F0AAEF07F01200010E3A
:100FA000076E200E01180210D8B4D9EF07F0DBEF5E
:100FB00007F0F4EF07F0F70E036EFF0E046E01C0AA
:100FC00005F002C006F00350052604500622065024
:100FD00009E1050E055CD8A0F0EF07F0F2EF07F08D
:100FE000F4EF07F0000E076E07C001F0026A12006E
:100FF000F29ED58AD588D58CD58E000ED66E000E81
:10100000946E000E8B6E92A808EF08F00AEF08F0BD
:101010001CEF08F00A0ED618D8A411EF08F013EF51
:1010200008F015EF08F02FC0D6FFD6CF2FF02F50C5
:1010300020098B6E0AEF08F01200000E936E0F0E5F
:10104000C16ED7EC08F00BEC07F0CCEC08F0060E04
:10105000046E010E43EC07F0420E056E080E066E9C
:10106000A4EC07F036C025F037C026F08FEC08F06E
:1010700032EF08F000EF00F0D00E036EFF0E046EAA
:1010800001C005F002C006F00350052604500622F8
:1010900006500AE10A0E055CD8A051EF08F054EFA3
:1010A00008F0010E55EF08F0000E016E026A120002
:1010B000046E04500F0B026E0450F00B036E818E11
:1010C00003380F0B76EC07F0818C1A0EE82EFED752
:1010D00000D0819C025076EC07F0818C1A0EE82E2D
:1010E000FED700D0819C1200A60EF66E110EF76E90
:1010F000000EF86E00EE30F010EE08F00900F5CFAB
:10110000EEFFE550E150FAE100EE27F0090EEE6A3D
:10111000E806FDE1000EF86E00011DEF08F09BEF00
:1011200008F0C80E00D000D0E82EFCD728EC04F060
:101130002506D8A0260626BEA8EF08F0265006E110
:101140002504D8B0A6EF08F0A8EF08F091EF08F05A
:10115000120001500302F3CF05F0F4CF06F0015066
:101160000402F350062602500302F350062605C07F
:1011700001F006C002F01200036E819E035076EC6F
:1011800007F0818C0B0E026E620EE82EFED7022E47
:10119000FCD700D0819C1200000EBCEC08F0010EC0
:1011A000BCEC08F0120031323334010064000F0E41
:0411B000956E120026
:020000040020DA
:08000000FFFFFFFFFFFFFFFF00
:020000040030CA
:0E00000000091F1EFF8181FF0FC00FE00F409F
:00000001FF
