:020000040000FA
:04000000BFEF3FF01F
:107F7E000001C2EF3FF00F0EC16E070EB46E000E81
:107F8E00BD6E1F0E936E000E8A6E000E926E000E68
:107F9E00896E81A4D5EF3FF0D7EF3FF0DAEF3FF0D7
:107FAE008A8ADBEF3FF08A9A81A6E0EF3FF0E2EF9C
:107FBE003FF0E5EF3FF08A8CE6EF3FF08A9C81A818
:107FCE00EBEF3FF0EDEF3FF0F0EF3FF08A8EF1EF89
:107FDE003FF08A9E040E026E0C0E016E340EE82ED9
:107FEE00FED7012EFCD7022EFAD7D0EF3FF000EFCE
:027FFE0000F091
:020000040020DA
:08000000FFFFFFFFFFFFFFFF00
:020000040030CA
:0E00000020021F1EFF8385FF0FC00FE00F4080
:00000001FF
